{
  "contractName": "NFT",
  "abi": [
    {
      "inputs": [],
      "stateMutability": "nonpayable",
      "type": "constructor"
    },
    {
      "anonymous": false,
      "inputs": [
        {
          "indexed": true,
          "internalType": "address",
          "name": "owner",
          "type": "address"
        },
        {
          "indexed": true,
          "internalType": "address",
          "name": "approved",
          "type": "address"
        },
        {
          "indexed": true,
          "internalType": "uint256",
          "name": "tokenId",
          "type": "uint256"
        }
      ],
      "name": "Approval",
      "type": "event"
    },
    {
      "anonymous": false,
      "inputs": [
        {
          "indexed": true,
          "internalType": "address",
          "name": "owner",
          "type": "address"
        },
        {
          "indexed": true,
          "internalType": "address",
          "name": "operator",
          "type": "address"
        },
        {
          "indexed": false,
          "internalType": "bool",
          "name": "approved",
          "type": "bool"
        }
      ],
      "name": "ApprovalForAll",
      "type": "event"
    },
    {
      "anonymous": false,
      "inputs": [
        {
          "indexed": true,
          "internalType": "address",
          "name": "from",
          "type": "address"
        },
        {
          "indexed": true,
          "internalType": "address",
          "name": "to",
          "type": "address"
        },
        {
          "indexed": true,
          "internalType": "uint256",
          "name": "tokenId",
          "type": "uint256"
        }
      ],
      "name": "Transfer",
      "type": "event"
    },
    {
      "inputs": [
        {
          "internalType": "address",
          "name": "to",
          "type": "address"
        },
        {
          "internalType": "uint256",
          "name": "tokenId",
          "type": "uint256"
        }
      ],
      "name": "approve",
      "outputs": [],
      "stateMutability": "nonpayable",
      "type": "function"
    },
    {
      "inputs": [
        {
          "internalType": "address",
          "name": "owner",
          "type": "address"
        }
      ],
      "name": "balanceOf",
      "outputs": [
        {
          "internalType": "uint256",
          "name": "",
          "type": "uint256"
        }
      ],
      "stateMutability": "view",
      "type": "function",
      "constant": true
    },
    {
      "inputs": [
        {
          "internalType": "uint256",
          "name": "tokenId",
          "type": "uint256"
        }
      ],
      "name": "getApproved",
      "outputs": [
        {
          "internalType": "address",
          "name": "",
          "type": "address"
        }
      ],
      "stateMutability": "view",
      "type": "function",
      "constant": true
    },
    {
      "inputs": [
        {
          "internalType": "address",
          "name": "owner",
          "type": "address"
        },
        {
          "internalType": "address",
          "name": "operator",
          "type": "address"
        }
      ],
      "name": "isApprovedForAll",
      "outputs": [
        {
          "internalType": "bool",
          "name": "",
          "type": "bool"
        }
      ],
      "stateMutability": "view",
      "type": "function",
      "constant": true
    },
    {
      "inputs": [],
      "name": "name",
      "outputs": [
        {
          "internalType": "string",
          "name": "",
          "type": "string"
        }
      ],
      "stateMutability": "view",
      "type": "function",
      "constant": true
    },
    {
      "inputs": [
        {
          "internalType": "uint256",
          "name": "tokenId",
          "type": "uint256"
        }
      ],
      "name": "ownerOf",
      "outputs": [
        {
          "internalType": "address",
          "name": "",
          "type": "address"
        }
      ],
      "stateMutability": "view",
      "type": "function",
      "constant": true
    },
    {
      "inputs": [
        {
          "internalType": "address",
          "name": "from",
          "type": "address"
        },
        {
          "internalType": "address",
          "name": "to",
          "type": "address"
        },
        {
          "internalType": "uint256",
          "name": "tokenId",
          "type": "uint256"
        }
      ],
      "name": "safeTransferFrom",
      "outputs": [],
      "stateMutability": "nonpayable",
      "type": "function"
    },
    {
      "inputs": [
        {
          "internalType": "address",
          "name": "from",
          "type": "address"
        },
        {
          "internalType": "address",
          "name": "to",
          "type": "address"
        },
        {
          "internalType": "uint256",
          "name": "tokenId",
          "type": "uint256"
        },
        {
          "internalType": "bytes",
          "name": "_data",
          "type": "bytes"
        }
      ],
      "name": "safeTransferFrom",
      "outputs": [],
      "stateMutability": "nonpayable",
      "type": "function"
    },
    {
      "inputs": [
        {
          "internalType": "address",
          "name": "operator",
          "type": "address"
        },
        {
          "internalType": "bool",
          "name": "approved",
          "type": "bool"
        }
      ],
      "name": "setApprovalForAll",
      "outputs": [],
      "stateMutability": "nonpayable",
      "type": "function"
    },
    {
      "inputs": [
        {
          "internalType": "bytes4",
          "name": "interfaceId",
          "type": "bytes4"
        }
      ],
      "name": "supportsInterface",
      "outputs": [
        {
          "internalType": "bool",
          "name": "",
          "type": "bool"
        }
      ],
      "stateMutability": "view",
      "type": "function",
      "constant": true
    },
    {
      "inputs": [],
      "name": "symbol",
      "outputs": [
        {
          "internalType": "string",
          "name": "",
          "type": "string"
        }
      ],
      "stateMutability": "view",
      "type": "function",
      "constant": true
    },
    {
      "inputs": [],
      "name": "tokenCounter",
      "outputs": [
        {
          "internalType": "uint256",
          "name": "",
          "type": "uint256"
        }
      ],
      "stateMutability": "view",
      "type": "function",
      "constant": true
    },
    {
      "inputs": [
        {
          "internalType": "uint256",
          "name": "tokenId",
          "type": "uint256"
        }
      ],
      "name": "tokenURI",
      "outputs": [
        {
          "internalType": "string",
          "name": "",
          "type": "string"
        }
      ],
      "stateMutability": "view",
      "type": "function",
      "constant": true
    },
    {
      "inputs": [
        {
          "internalType": "address",
          "name": "from",
          "type": "address"
        },
        {
          "internalType": "address",
          "name": "to",
          "type": "address"
        },
        {
          "internalType": "uint256",
          "name": "tokenId",
          "type": "uint256"
        }
      ],
      "name": "transferFrom",
      "outputs": [],
      "stateMutability": "nonpayable",
      "type": "function"
    },
    {
      "inputs": [
        {
          "internalType": "string",
          "name": "tokenURI",
          "type": "string"
        }
      ],
      "name": "createCollectible",
      "outputs": [
        {
          "internalType": "uint256",
          "name": "",
          "type": "uint256"
        }
      ],
      "stateMutability": "nonpayable",
      "type": "function"
    }
  ],
  "bytecode": "0x60806040523480156200001157600080fd5b506040518060400160405280600381526020017f444f4700000000000000000000000000000000000000000000000000000000008152506040518060400160405280600281526020017f4447000000000000000000000000000000000000000000000000000000000000815250816000908051906020019062000096929190620000c0565b508060019080519060200190620000af929190620000c0565b5050506000600781905550620001d5565b828054620000ce906200019f565b90600052602060002090601f016020900481019282620000f257600085556200013e565b82601f106200010d57805160ff19168380011785556200013e565b828001600101855582156200013e579182015b828111156200013d57825182559160200191906001019062000120565b5b5090506200014d919062000151565b5090565b5b808211156200016c57600081600090555060010162000152565b5090565b7f4e487b7100000000000000000000000000000000000000000000000000000000600052602260045260246000fd5b60006002820490506001821680620001b857607f821691505b60208210811415620001cf57620001ce62000170565b5b50919050565b612c1980620001e56000396000f3fe608060405234801561001057600080fd5b50600436106100f55760003560e01c80636352211e11610097578063b88d4fde11610066578063b88d4fde14610296578063c87b56dd146102b2578063d082e381146102e2578063e985e9c514610300576100f5565b80636352211e146101fc57806370a082311461022c57806395d89b411461025c578063a22cb4651461027a576100f5565b8063095ea7b3116100d3578063095ea7b31461017857806323b872dd1461019457806331f1f3c3146101b057806342842e0e146101e0576100f5565b806301ffc9a7146100fa57806306fdde031461012a578063081812fc14610148575b600080fd5b610114600480360381019061010f919061198e565b610330565b60405161012191906119d6565b60405180910390f35b610132610412565b60405161013f9190611a8a565b60405180910390f35b610162600480360381019061015d9190611ae2565b6104a4565b60405161016f9190611b50565b60405180910390f35b610192600480360381019061018d9190611b97565b610529565b005b6101ae60048036038101906101a99190611bd7565b610641565b005b6101ca60048036038101906101c59190611d5f565b6106a1565b6040516101d79190611db7565b60405180910390f35b6101fa60048036038101906101f59190611bd7565b6106de565b005b61021660048036038101906102119190611ae2565b6106fe565b6040516102239190611b50565b60405180910390f35b61024660048036038101906102419190611dd2565b6107b0565b6040516102539190611db7565b60405180910390f35b610264610868565b6040516102719190611a8a565b60405180910390f35b610294600480360381019061028f9190611e2b565b6108fa565b005b6102b060048036038101906102ab9190611f0c565b610a7b565b005b6102cc60048036038101906102c79190611ae2565b610add565b6040516102d99190611a8a565b60405180910390f35b6102ea610c2f565b6040516102f79190611db7565b60405180910390f35b61031a60048036038101906103159190611f8f565b610c35565b60405161032791906119d6565b60405180910390f35b60007f80ac58cd000000000000000000000000000000000000000000000000000000007bffffffffffffffffffffffffffffffffffffffffffffffffffffffff1916827bffffffffffffffffffffffffffffffffffffffffffffffffffffffff191614806103fb57507f5b5e139f000000000000000000000000000000000000000000000000000000007bffffffffffffffffffffffffffffffffffffffffffffffffffffffff1916827bffffffffffffffffffffffffffffffffffffffffffffffffffffffff1916145b8061040b575061040a82610cc9565b5b9050919050565b60606000805461042190611ffe565b80601f016020809104026020016040519081016040528092919081815260200182805461044d90611ffe565b801561049a5780601f1061046f5761010080835404028352916020019161049a565b820191906000526020600020905b81548152906001019060200180831161047d57829003601f168201915b5050505050905090565b60006104af82610d33565b6104ee576040517f08c379a00000000000000000000000000000000000000000000000000000000081526004016104e5906120a2565b60405180910390fd5b6004600083815260200190815260200160002060009054906101000a900473ffffffffffffffffffffffffffffffffffffffff169050919050565b6000610534826106fe565b90508073ffffffffffffffffffffffffffffffffffffffff168373ffffffffffffffffffffffffffffffffffffffff1614156105a5576040517f08c379a000000000000000000000000000000000000000000000000000000000815260040161059c90612134565b60405180910390fd5b8073ffffffffffffffffffffffffffffffffffffffff166105c4610d9f565b73ffffffffffffffffffffffffffffffffffffffff1614806105f357506105f2816105ed610d9f565b610c35565b5b610632576040517f08c379a0000000000000000000000000000000000000000000000000000000008152600401610629906121c6565b60405180910390fd5b61063c8383610da7565b505050565b61065261064c610d9f565b82610e60565b610691576040517f08c379a000000000000000000000000000000000000000000000000000000000815260040161068890612258565b60405180910390fd5b61069c838383610f3e565b505050565b60008060075490506106b3338261119a565b6106bd81846111b8565b600760008154809291906106d0906122a7565b919050555080915050919050565b6106f983838360405180602001604052806000815250610a7b565b505050565b6000806002600084815260200190815260200160002060009054906101000a900473ffffffffffffffffffffffffffffffffffffffff169050600073ffffffffffffffffffffffffffffffffffffffff168173ffffffffffffffffffffffffffffffffffffffff1614156107a7576040517f08c379a000000000000000000000000000000000000000000000000000000000815260040161079e90612362565b60405180910390fd5b80915050919050565b60008073ffffffffffffffffffffffffffffffffffffffff168273ffffffffffffffffffffffffffffffffffffffff161415610821576040517f08c379a0000000000000000000000000000000000000000000000000000000008152600401610818906123f4565b60405180910390fd5b600360008373ffffffffffffffffffffffffffffffffffffffff1673ffffffffffffffffffffffffffffffffffffffff168152602001908152602001600020549050919050565b60606001805461087790611ffe565b80601f01602080910402602001604051908101604052809291908181526020018280546108a390611ffe565b80156108f05780601f106108c5576101008083540402835291602001916108f0565b820191906000526020600020905b8154815290600101906020018083116108d357829003601f168201915b5050505050905090565b610902610d9f565b73ffffffffffffffffffffffffffffffffffffffff168273ffffffffffffffffffffffffffffffffffffffff161415610970576040517f08c379a000000000000000000000000000000000000000000000000000000000815260040161096790612460565b60405180910390fd5b806005600061097d610d9f565b73ffffffffffffffffffffffffffffffffffffffff1673ffffffffffffffffffffffffffffffffffffffff16815260200190815260200160002060008473ffffffffffffffffffffffffffffffffffffffff1673ffffffffffffffffffffffffffffffffffffffff16815260200190815260200160002060006101000a81548160ff0219169083151502179055508173ffffffffffffffffffffffffffffffffffffffff16610a2a610d9f565b73ffffffffffffffffffffffffffffffffffffffff167f17307eab39ab6107e8899845ad3d59bd9653f200f220920489ca2b5937696c3183604051610a6f91906119d6565b60405180910390a35050565b610a8c610a86610d9f565b83610e60565b610acb576040517f08c379a0000000000000000000000000000000000000000000000000000000008152600401610ac290612258565b60405180910390fd5b610ad78484848461122c565b50505050565b6060610ae882610d33565b610b27576040517f08c379a0000000000000000000000000000000000000000000000000000000008152600401610b1e906124f2565b60405180910390fd5b6000600660008481526020019081526020016000208054610b4790611ffe565b80601f0160208091040260200160405190810160405280929190818152602001828054610b7390611ffe565b8015610bc05780601f10610b9557610100808354040283529160200191610bc0565b820191906000526020600020905b815481529060010190602001808311610ba357829003601f168201915b505050505090506000610bd1611288565b9050600081511415610be7578192505050610c2a565b600082511115610c1c578082604051602001610c0492919061254e565b60405160208183030381529060405292505050610c2a565b610c258461129f565b925050505b919050565b60075481565b6000600560008473ffffffffffffffffffffffffffffffffffffffff1673ffffffffffffffffffffffffffffffffffffffff16815260200190815260200160002060008373ffffffffffffffffffffffffffffffffffffffff1673ffffffffffffffffffffffffffffffffffffffff16815260200190815260200160002060009054906101000a900460ff16905092915050565b60007f01ffc9a7000000000000000000000000000000000000000000000000000000007bffffffffffffffffffffffffffffffffffffffffffffffffffffffff1916827bffffffffffffffffffffffffffffffffffffffffffffffffffffffff1916149050919050565b60008073ffffffffffffffffffffffffffffffffffffffff166002600084815260200190815260200160002060009054906101000a900473ffffffffffffffffffffffffffffffffffffffff1673ffffffffffffffffffffffffffffffffffffffff1614159050919050565b600033905090565b816004600083815260200190815260200160002060006101000a81548173ffffffffffffffffffffffffffffffffffffffff021916908373ffffffffffffffffffffffffffffffffffffffff160217905550808273ffffffffffffffffffffffffffffffffffffffff16610e1a836106fe565b73ffffffffffffffffffffffffffffffffffffffff167f8c5be1e5ebec7d5bd14f71427d1e84f3dd0314c0f7b2291e5b200ac8c7c3b92560405160405180910390a45050565b6000610e6b82610d33565b610eaa576040517f08c379a0000000000000000000000000000000000000000000000000000000008152600401610ea1906125e4565b60405180910390fd5b6000610eb5836106fe565b90508073ffffffffffffffffffffffffffffffffffffffff168473ffffffffffffffffffffffffffffffffffffffff161480610f2457508373ffffffffffffffffffffffffffffffffffffffff16610f0c846104a4565b73ffffffffffffffffffffffffffffffffffffffff16145b80610f355750610f348185610c35565b5b91505092915050565b8273ffffffffffffffffffffffffffffffffffffffff16610f5e826106fe565b73ffffffffffffffffffffffffffffffffffffffff1614610fb4576040517f08c379a0000000000000000000000000000000000000000000000000000000008152600401610fab90612676565b60405180910390fd5b600073ffffffffffffffffffffffffffffffffffffffff168273ffffffffffffffffffffffffffffffffffffffff161415611024576040517f08c379a000000000000000000000000000000000000000000000000000000000815260040161101b90612708565b60405180910390fd5b61102f838383611346565b61103a600082610da7565b6001600360008573ffffffffffffffffffffffffffffffffffffffff1673ffffffffffffffffffffffffffffffffffffffff168152602001908152602001600020600082825461108a9190612728565b925050819055506001600360008473ffffffffffffffffffffffffffffffffffffffff1673ffffffffffffffffffffffffffffffffffffffff16815260200190815260200160002060008282546110e1919061275c565b92505081905550816002600083815260200190815260200160002060006101000a81548173ffffffffffffffffffffffffffffffffffffffff021916908373ffffffffffffffffffffffffffffffffffffffff160217905550808273ffffffffffffffffffffffffffffffffffffffff168473ffffffffffffffffffffffffffffffffffffffff167fddf252ad1be2c89b69c2b068fc378daa952ba7f163c4a11628f55a4df523b3ef60405160405180910390a4505050565b6111b482826040518060200160405280600081525061134b565b5050565b6111c182610d33565b611200576040517f08c379a00000000000000000000000000000000000000000000000000000000081526004016111f790612824565b60405180910390fd5b8060066000848152602001908152602001600020908051906020019061122792919061187f565b505050565b611237848484610f3e565b611243848484846113a6565b611282576040517f08c379a0000000000000000000000000000000000000000000000000000000008152600401611279906128b6565b60405180910390fd5b50505050565b606060405180602001604052806000815250905090565b60606112aa82610d33565b6112e9576040517f08c379a00000000000000000000000000000000000000000000000000000000081526004016112e090612948565b60405180910390fd5b60006112f3611288565b90506000815111611313576040518060200160405280600081525061133e565b8061131d8461153d565b60405160200161132e92919061254e565b6040516020818303038152906040525b915050919050565b505050565b611355838361169e565b61136260008484846113a6565b6113a1576040517f08c379a0000000000000000000000000000000000000000000000000000000008152600401611398906128b6565b60405180910390fd5b505050565b60006113c78473ffffffffffffffffffffffffffffffffffffffff1661186c565b15611530578373ffffffffffffffffffffffffffffffffffffffff1663150b7a026113f0610d9f565b8786866040518563ffffffff1660e01b815260040161141294939291906129bd565b602060405180830381600087803b15801561142c57600080fd5b505af192505050801561145d57506040513d601f19601f8201168201806040525081019061145a9190612a1e565b60015b6114e0573d806000811461148d576040519150601f19603f3d011682016040523d82523d6000602084013e611492565b606091505b506000815114156114d8576040517f08c379a00000000000000000000000000000000000000000000000000000000081526004016114cf906128b6565b60405180910390fd5b805181602001fd5b63150b7a0260e01b7bffffffffffffffffffffffffffffffffffffffffffffffffffffffff1916817bffffffffffffffffffffffffffffffffffffffffffffffffffffffff191614915050611535565b600190505b949350505050565b60606000821415611585576040518060400160405280600181526020017f30000000000000000000000000000000000000000000000000000000000000008152509050611699565b600082905060005b600082146115b75780806115a0906122a7565b915050600a826115b09190612a7a565b915061158d565b60008167ffffffffffffffff8111156115d3576115d2611c34565b5b6040519080825280601f01601f1916602001820160405280156116055781602001600182028036833780820191505090505b5090505b600085146116925760018261161e9190612728565b9150600a8561162d9190612aab565b6030611639919061275c565b60f81b81838151811061164f5761164e612adc565b5b60200101907effffffffffffffffffffffffffffffffffffffffffffffffffffffffffffff1916908160001a905350600a8561168b9190612a7a565b9450611609565b8093505050505b919050565b600073ffffffffffffffffffffffffffffffffffffffff168273ffffffffffffffffffffffffffffffffffffffff16141561170e576040517f08c379a000000000000000000000000000000000000000000000000000000000815260040161170590612b57565b60405180910390fd5b61171781610d33565b15611757576040517f08c379a000000000000000000000000000000000000000000000000000000000815260040161174e90612bc3565b60405180910390fd5b61176360008383611346565b6001600360008473ffffffffffffffffffffffffffffffffffffffff1673ffffffffffffffffffffffffffffffffffffffff16815260200190815260200160002060008282546117b3919061275c565b92505081905550816002600083815260200190815260200160002060006101000a81548173ffffffffffffffffffffffffffffffffffffffff021916908373ffffffffffffffffffffffffffffffffffffffff160217905550808273ffffffffffffffffffffffffffffffffffffffff16600073ffffffffffffffffffffffffffffffffffffffff167fddf252ad1be2c89b69c2b068fc378daa952ba7f163c4a11628f55a4df523b3ef60405160405180910390a45050565b600080823b905060008111915050919050565b82805461188b90611ffe565b90600052602060002090601f0160209004810192826118ad57600085556118f4565b82601f106118c657805160ff19168380011785556118f4565b828001600101855582156118f4579182015b828111156118f35782518255916020019190600101906118d8565b5b5090506119019190611905565b5090565b5b8082111561191e576000816000905550600101611906565b5090565b6000604051905090565b600080fd5b600080fd5b60007fffffffff0000000000000000000000000000000000000000000000000000000082169050919050565b61196b81611936565b811461197657600080fd5b50565b60008135905061198881611962565b92915050565b6000602082840312156119a4576119a361192c565b5b60006119b284828501611979565b91505092915050565b60008115159050919050565b6119d0816119bb565b82525050565b60006020820190506119eb60008301846119c7565b92915050565b600081519050919050565b600082825260208201905092915050565b60005b83811015611a2b578082015181840152602081019050611a10565b83811115611a3a576000848401525b50505050565b6000601f19601f8301169050919050565b6000611a5c826119f1565b611a6681856119fc565b9350611a76818560208601611a0d565b611a7f81611a40565b840191505092915050565b60006020820190508181036000830152611aa48184611a51565b905092915050565b6000819050919050565b611abf81611aac565b8114611aca57600080fd5b50565b600081359050611adc81611ab6565b92915050565b600060208284031215611af857611af761192c565b5b6000611b0684828501611acd565b91505092915050565b600073ffffffffffffffffffffffffffffffffffffffff82169050919050565b6000611b3a82611b0f565b9050919050565b611b4a81611b2f565b82525050565b6000602082019050611b656000830184611b41565b92915050565b611b7481611b2f565b8114611b7f57600080fd5b50565b600081359050611b9181611b6b565b92915050565b60008060408385031215611bae57611bad61192c565b5b6000611bbc85828601611b82565b9250506020611bcd85828601611acd565b9150509250929050565b600080600060608486031215611bf057611bef61192c565b5b6000611bfe86828701611b82565b9350506020611c0f86828701611b82565b9250506040611c2086828701611acd565b9150509250925092565b600080fd5b600080fd5b7f4e487b7100000000000000000000000000000000000000000000000000000000600052604160045260246000fd5b611c6c82611a40565b810181811067ffffffffffffffff82111715611c8b57611c8a611c34565b5b80604052505050565b6000611c9e611922565b9050611caa8282611c63565b919050565b600067ffffffffffffffff821115611cca57611cc9611c34565b5b611cd382611a40565b9050602081019050919050565b82818337600083830152505050565b6000611d02611cfd84611caf565b611c94565b905082815260208101848484011115611d1e57611d1d611c2f565b5b611d29848285611ce0565b509392505050565b600082601f830112611d4657611d45611c2a565b5b8135611d56848260208601611cef565b91505092915050565b600060208284031215611d7557611d7461192c565b5b600082013567ffffffffffffffff811115611d9357611d92611931565b5b611d9f84828501611d31565b91505092915050565b611db181611aac565b82525050565b6000602082019050611dcc6000830184611da8565b92915050565b600060208284031215611de857611de761192c565b5b6000611df684828501611b82565b91505092915050565b611e08816119bb565b8114611e1357600080fd5b50565b600081359050611e2581611dff565b92915050565b60008060408385031215611e4257611e4161192c565b5b6000611e5085828601611b82565b9250506020611e6185828601611e16565b9150509250929050565b600067ffffffffffffffff821115611e8657611e85611c34565b5b611e8f82611a40565b9050602081019050919050565b6000611eaf611eaa84611e6b565b611c94565b905082815260208101848484011115611ecb57611eca611c2f565b5b611ed6848285611ce0565b509392505050565b600082601f830112611ef357611ef2611c2a565b5b8135611f03848260208601611e9c565b91505092915050565b60008060008060808587031215611f2657611f2561192c565b5b6000611f3487828801611b82565b9450506020611f4587828801611b82565b9350506040611f5687828801611acd565b925050606085013567ffffffffffffffff811115611f7757611f76611931565b5b611f8387828801611ede565b91505092959194509250565b60008060408385031215611fa657611fa561192c565b5b6000611fb485828601611b82565b9250506020611fc585828601611b82565b9150509250929050565b7f4e487b7100000000000000000000000000000000000000000000000000000000600052602260045260246000fd5b6000600282049050600182168061201657607f821691505b6020821081141561202a57612029611fcf565b5b50919050565b7f4552433732313a20617070726f76656420717565727920666f72206e6f6e657860008201527f697374656e7420746f6b656e0000000000000000000000000000000000000000602082015250565b600061208c602c836119fc565b915061209782612030565b604082019050919050565b600060208201905081810360008301526120bb8161207f565b9050919050565b7f4552433732313a20617070726f76616c20746f2063757272656e74206f776e6560008201527f7200000000000000000000000000000000000000000000000000000000000000602082015250565b600061211e6021836119fc565b9150612129826120c2565b604082019050919050565b6000602082019050818103600083015261214d81612111565b9050919050565b7f4552433732313a20617070726f76652063616c6c6572206973206e6f74206f7760008201527f6e6572206e6f7220617070726f76656420666f7220616c6c0000000000000000602082015250565b60006121b06038836119fc565b91506121bb82612154565b604082019050919050565b600060208201905081810360008301526121df816121a3565b9050919050565b7f4552433732313a207472616e736665722063616c6c6572206973206e6f74206f60008201527f776e6572206e6f7220617070726f766564000000000000000000000000000000602082015250565b60006122426031836119fc565b915061224d826121e6565b604082019050919050565b6000602082019050818103600083015261227181612235565b9050919050565b7f4e487b7100000000000000000000000000000000000000000000000000000000600052601160045260246000fd5b60006122b282611aac565b91507fffffffffffffffffffffffffffffffffffffffffffffffffffffffffffffffff8214156122e5576122e4612278565b5b600182019050919050565b7f4552433732313a206f776e657220717565727920666f72206e6f6e657869737460008201527f656e7420746f6b656e0000000000000000000000000000000000000000000000602082015250565b600061234c6029836119fc565b9150612357826122f0565b604082019050919050565b6000602082019050818103600083015261237b8161233f565b9050919050565b7f4552433732313a2062616c616e636520717565727920666f7220746865207a6560008201527f726f206164647265737300000000000000000000000000000000000000000000602082015250565b60006123de602a836119fc565b91506123e982612382565b604082019050919050565b6000602082019050818103600083015261240d816123d1565b9050919050565b7f4552433732313a20617070726f766520746f2063616c6c657200000000000000600082015250565b600061244a6019836119fc565b915061245582612414565b602082019050919050565b600060208201905081810360008301526124798161243d565b9050919050565b7f45524337323155524953746f726167653a2055524920717565727920666f722060008201527f6e6f6e6578697374656e7420746f6b656e000000000000000000000000000000602082015250565b60006124dc6031836119fc565b91506124e782612480565b604082019050919050565b6000602082019050818103600083015261250b816124cf565b9050919050565b600081905092915050565b6000612528826119f1565b6125328185612512565b9350612542818560208601611a0d565b80840191505092915050565b600061255a828561251d565b9150612566828461251d565b91508190509392505050565b7f4552433732313a206f70657261746f7220717565727920666f72206e6f6e657860008201527f697374656e7420746f6b656e0000000000000000000000000000000000000000602082015250565b60006125ce602c836119fc565b91506125d982612572565b604082019050919050565b600060208201905081810360008301526125fd816125c1565b9050919050565b7f4552433732313a207472616e73666572206f6620746f6b656e2074686174206960008201527f73206e6f74206f776e0000000000000000000000000000000000000000000000602082015250565b60006126606029836119fc565b915061266b82612604565b604082019050919050565b6000602082019050818103600083015261268f81612653565b9050919050565b7f4552433732313a207472616e7366657220746f20746865207a65726f2061646460008201527f7265737300000000000000000000000000000000000000000000000000000000602082015250565b60006126f26024836119fc565b91506126fd82612696565b604082019050919050565b60006020820190508181036000830152612721816126e5565b9050919050565b600061273382611aac565b915061273e83611aac565b92508282101561275157612750612278565b5b828203905092915050565b600061276782611aac565b915061277283611aac565b9250827fffffffffffffffffffffffffffffffffffffffffffffffffffffffffffffffff038211156127a7576127a6612278565b5b828201905092915050565b7f45524337323155524953746f726167653a2055524920736574206f66206e6f6e60008201527f6578697374656e7420746f6b656e000000000000000000000000000000000000602082015250565b600061280e602e836119fc565b9150612819826127b2565b604082019050919050565b6000602082019050818103600083015261283d81612801565b9050919050565b7f4552433732313a207472616e7366657220746f206e6f6e20455243373231526560008201527f63656976657220696d706c656d656e7465720000000000000000000000000000602082015250565b60006128a06032836119fc565b91506128ab82612844565b604082019050919050565b600060208201905081810360008301526128cf81612893565b9050919050565b7f4552433732314d657461646174613a2055524920717565727920666f72206e6f60008201527f6e6578697374656e7420746f6b656e0000000000000000000000000000000000602082015250565b6000612932602f836119fc565b915061293d826128d6565b604082019050919050565b6000602082019050818103600083015261296181612925565b9050919050565b600081519050919050565b600082825260208201905092915050565b600061298f82612968565b6129998185612973565b93506129a9818560208601611a0d565b6129b281611a40565b840191505092915050565b60006080820190506129d26000830187611b41565b6129df6020830186611b41565b6129ec6040830185611da8565b81810360608301526129fe8184612984565b905095945050505050565b600081519050612a1881611962565b92915050565b600060208284031215612a3457612a3361192c565b5b6000612a4284828501612a09565b91505092915050565b7f4e487b7100000000000000000000000000000000000000000000000000000000600052601260045260246000fd5b6000612a8582611aac565b9150612a9083611aac565b925082612aa057612a9f612a4b565b5b828204905092915050565b6000612ab682611aac565b9150612ac183611aac565b925082612ad157612ad0612a4b565b5b828206905092915050565b7f4e487b7100000000000000000000000000000000000000000000000000000000600052603260045260246000fd5b7f4552433732313a206d696e7420746f20746865207a65726f2061646472657373600082015250565b6000612b416020836119fc565b9150612b4c82612b0b565b602082019050919050565b60006020820190508181036000830152612b7081612b34565b9050919050565b7f4552433732313a20746f6b656e20616c7265616479206d696e74656400000000600082015250565b6000612bad601c836119fc565b9150612bb882612b77565b602082019050919050565b60006020820190508181036000830152612bdc81612ba0565b905091905056fea2646970667358221220664986051304aab7250f8dbf9d05845320c1f2b49bb5c3409d76db49a8b6853064736f6c63430008090033",
  "immutableReferences": {},
  "source": "\n// SPDX-License-Identifier: MIT\n\npragma solidity 0.8.9;\n\nimport \"@openzeppelin/contracts/token/ERC721/ERC721.sol\";\nimport \"@openzeppelin/contracts/token/ERC721/extensions/ERC721URIStorage.sol\";\n\n\ncontract NFT is ERC721URIStorage {\n\tuint256 public tokenCounter;\n\n\tconstructor() ERC721 ('DOG','DG'){\n\t\ttokenCounter = 0;\n\t}\n\n\tfunction createCollectible(string memory tokenURI) public returns (uint256) {\n\t\tuint256 newItemId = tokenCounter;\n\t\t_safeMint(msg.sender, newItemId);\n\t\t_setTokenURI(newItemId, tokenURI);\n\t\ttokenCounter++;\n\t\treturn newItemId;\n\t}\n}\n\n",
  "sourcePath": "/home/binod/projects/blockchain/nft/contracts/NFT.sol",
  "compiler": {
    "name": "solc",
    "version": "0.8.9+commit.e5eed63a.Emscripten.clang"
  },
  "schemaVersion": "3.4.1",
  "updatedAt": "2021-10-12T02:44:52.111Z",
  "networkType": "ethereum",
  "devdoc": {
    "kind": "dev",
    "methods": {
      "approve(address,uint256)": {
        "details": "See {IERC721-approve}."
      },
      "balanceOf(address)": {
        "details": "See {IERC721-balanceOf}."
      },
      "getApproved(uint256)": {
        "details": "See {IERC721-getApproved}."
      },
      "isApprovedForAll(address,address)": {
        "details": "See {IERC721-isApprovedForAll}."
      },
      "name()": {
        "details": "See {IERC721Metadata-name}."
      },
      "ownerOf(uint256)": {
        "details": "See {IERC721-ownerOf}."
      },
      "safeTransferFrom(address,address,uint256)": {
        "details": "See {IERC721-safeTransferFrom}."
      },
      "safeTransferFrom(address,address,uint256,bytes)": {
        "details": "See {IERC721-safeTransferFrom}."
      },
      "setApprovalForAll(address,bool)": {
        "details": "See {IERC721-setApprovalForAll}."
      },
      "supportsInterface(bytes4)": {
        "details": "See {IERC165-supportsInterface}."
      },
      "symbol()": {
        "details": "See {IERC721Metadata-symbol}."
      },
      "tokenURI(uint256)": {
        "details": "See {IERC721Metadata-tokenURI}."
      },
      "transferFrom(address,address,uint256)": {
        "details": "See {IERC721-transferFrom}."
      }
    },
    "version": 1
  },
  "userdoc": {
    "kind": "user",
    "methods": {},
    "version": 1
  }
}